:020000040800F2
:10000000005000205D560008D9500008DD5000085F
:10001000E1500008E5500008E95000080000000029
:100020000000000000000000000000003140000857
:10003000ED50000800000000C14000080541000824
:10004000A5560008A5560008A5560008A5560008A4
:10005000A5560008A5560008A5560008A556000894
:10006000A5560008A5560008A5560008A556000884
:10007000A5560008A5560008A5560008A556000874
:10008000A5560008A5560008A5560008A556000864
:10009000F1500008A5560008A5560008A55600080E
:1000A000A5560008A5560008A5560008A556000844
:1000B000A5560008A5560008FD500008A5560008E2
:1000C000A5560008A5560008A5560008A556000824
:1000D000A5560008A5560008A5560008A556000814
:1000E000A5560008A5560008A55600080000000007
:1000F0000000000000000000000000000000000000
:0C01000000000000000000005FF808F1A3
:1001100010B5054C237833B9044B13B10448AFF341
:1001200000800123237010BDD404002000000000D3
:100130005459000808B5034B1BB103490348AFF3FA
:10014000008008BD00000000D804002054590008B9
:10015000074A08B51368032043F01003136000F04A
:100160001BF8002004F07AFF04F050FF002008BDC7
:1001700000200240034A044B11681B780B441360B3
:10018000704700BF7014002000000020014B186869
:10019000704700BF701400204FF6FF01064A0002AE
:1001A000D36800F4E0600B4043F0BF6343F40033D6
:1001B0000343D360704700BF00ED00E0184B30B43C
:1001C000DB68C3F30223C3F10705042D03F1040424
:1001D00028BF0425062C19D94FF0FF34033B9C405F
:1001E00022EA04044FF0FF32AA4021EA020101FA98
:1001F00003F2224312010028D2B20ADB00F1604070
:1002000000F5614080F8002330BC7047002423468D
:10021000E8E7044B00F00F0003441A7630BC704747
:1002200000ED00E0FCEC00E0002807DB012300F01B
:100230001F01034A8B40400942F82030704700BF3D
:1002400000E100E00A68002A00F0DB802DE9F04FB1
:100250004FF0000A85B05546DFF8D0C1DFF8D0E195
:100260006D4FDFF8D08103E0013532FA05F378D025
:100270000123AB4002EA0304A342F5D14A68122AE3
:1002800000F09E8000F28780022A00F09D807CD9D9
:10029000032A69D0112A02D1CB6803F1040AFF2C8A
:1002A00066D881460368AA000F2606FA02FB23EAF5
:1002B0000B030AFA02F21343C9F800304A68D3006C
:1002C00061D5DCF8189025F0030349F00109CCF85A
:1002D0001890DCF8189003F1804309F00109CDF87B
:1002E0000C9003F5803305F00309DDF80CB04FEAFC
:1002F0008909D3F808B006FA09F62BEA0606704514
:10030000019611D0404563D0444EB0427AD0444E5D
:10031000B0420CBF4FF0030B4FF0040B019E0BFAE1
:1003200009F946EA090601969E603B68D6034CBF70
:100330002343A3433B607B6896034CBF2343A34303
:100340007B60BB68D6024CBF2343A343BB609202D1
:10035000FB6815D51C43FC600A68013532FA05F3C9
:1003600086D105B0BDE8F08FFF2C4FF0000A98D978
:1003700005F18042083A4368920000F1040993E7CE
:1003800023EA0404FC600A686EE7A2B1012A86D160
:10039000D1F80CA083E7234EB2420CD020D9224ED4
:1003A000B24208D006F58036B24204D0A6F58016D7
:1003B000B2427FF474AF8A68E2B94FF0040A6EE784
:1003C000CB6803F10C0A6AE7CB6803F1080A66E719
:1003D0004FF0010B0BFA09F946EA09060196A3E76B
:1003E000A6F58016B242E6D006F58036B2427FF41A
:1003F00056AFE0E7012A0CBF036143614FF0080AE2
:100400004DE770474FF0020B019E0BFA09F946EADF
:100410000906019688E700BF000401400010014072
:1004200000140140000021100000311000100240B3
:1004300000080140000C014002B909040161704745
:10044000F0B587B0002874D090F82932044603F044
:10045000FF02002B68D00323264684F82932206847
:1004600001F0C8F856F810CB6D4637460FCF0FC5D0
:100470003B68271D2B60604697E80E0001F0A8F846
:10048000054630B10223012584F82932284607B0F9
:10049000F0BD0146206801F0B7F8D4F804C0BCF103
:1004A000000F29D028464FF0010E2A4604EB4013D6
:1004B000451C83F82800D886E8B2604583F829E017
:1004C00083F82B20C3E90E221A64EFD300231946C8
:1004D00004EB43125D1C03F10A0082F82831EBB2F1
:1004E0004001634582F8291182F82B11C2F83811B6
:1004F000C2F83C112150EBD30FCE6D46D4F800C0AA
:100500000FC5336860462B6097E80E0001F07EF857
:1005100005460028B6D1012384F82400206884F819
:10052000293201F091FCB1E780F8282204F090FE16
:1005300091E70125284607B0F0BD00BF90F82832AA
:10054000012B10D0012110B5044680F8281204F0C8
:10055000ADFF206801F076FC206801F041F8002032
:1005600084F8280210BD0220704700BF2DE9F84F23
:100570000446006801F06AFC0104226843D4104676
:1005800001F064FC460500F17181206801F05EFC19
:1005900010F4804F206807D0B0F8443023F4804333
:1005A0001B041B0CA0F8443001F050FC10F4005F59
:1005B000206807D0B0F8443023F400531B041B0C10
:1005C000A0F8443001F042FCC50400F131812068FC
:1005D00001F03CFC000500F10481206801F036FCCC
:1005E000820500F1F180206801F030FCC30508D5D8
:1005F0002268B2F8443023F480731B041B0CA2F869
:100600004430BDE8F88FDFF814A4DFF814B4B2F872
:1006100044301F04B3D5B2F8441089B211F00F056D
:1006200057D111F01001138800F03E819BB213F4F2
:10063000006540F07A811B04E9D540F68F7311887C
:100640000B4043F080031380B2F8503094F8281127
:1006500003EBC10302EB4303B3F80C34C3F3090308
:10066000C4F844319BB1D4F83C1181B11046B4F8C0
:100670002E2101F0F1FBD4F83C31D4F84421294675
:100680001344C4F83C31204604F008FE2268B2F856
:100690005030D4F838119BB202F20C40002940F0DF
:1006A0009881C15A21F4F8410904090CC152C15A78
:1006B0006FEA41416FEA514189B2C1521188D64B6C
:1006C0000B4083F4405343F4004343F08003138012
:1006D0009DE732F82560B6B2310426D4330696D5AC
:1006E00032F8251004EB45130AEA010141F40041F8
:1006F00022F82510B2F8501093F82850D86B01EB6F
:10070000C50102EB4101B1F804141D6CC1F30901EC
:1007100046185964DE63002D40F0EF8093F82810EE
:10072000204604F0C3FD226871E740F68F7332F86B
:1007300025106F010B4043F0800322F8253004EBB5
:10074000070999F8343102F58060002B00F00F8121
:1007500099F8283132F823C002EB83011CF4804F52
:10076000B2F850C04FEAC303634400F01B81023368
:1007700030F81380C8F30908B8F1000F40F05D812C
:100780000B880BEA030343F4004343F0C0030B80E0
:100790002744D7F84421D7F83C31D7F840014244E8
:1007A0004344C7F84421C7F83C31002800F0F780E3
:1007B000D7F8382197F82811904580F01481204609
:1007C00004F06CFD226889E722682046B2F84430C4
:1007D00023F400731B041B0CA2F8443004F06EFDDC
:1007E00001E72368B3F84020184642F00802A3F856
:1007F0004020B3F8442022F400621204120CA3F843
:100800004420B3F8402042F00402A3F8402001F055
:100810001DFBC10408D52268B2F8443023F480538C
:100820001B041B0CA2F84430204604F05DFDD4E606
:1008300022682046B2F8403023F004031B041B0C4E
:10084000A2F84030B2F8403023F008031B041B0C20
:10085000A2F8403004F058FD2068B0F8443023F48A
:1008600080531B041B0CA0F84430B1E622682046DC
:10087000B2F8443023F480631B041B0CA2F844300C
:1008800004F020FD94F82832012B3FF47EAE0025C1
:10089000012384F8245084F828322946206801F086
:1008A000CBFA84F8285270E60AEA030343F40043C3
:1008B0001380B2F8503094F82800E56B03EBC003C6
:1008C00002EB4302B2F804342046C3F309031D448B
:1008D0006364E56304F0EAFC94F824301BB3236CF2
:1008E0002268002B7FF493AE94F8241041F080012D
:1008F000A2F84C1084F8243089E64FF0000C012750
:1009000093F82830104603F007025101631828318C
:1009100083F82820C3E90F652144C3F844C083F855
:10092000297001F0EBF8226871E6B2F8503094F8C3
:100930002811104603EBC10302EB4302B2F80C345A
:1009400004F50C71C3F30903B4F82E21C4F8443143
:1009500001F082FA40F68F732268204611880B401E
:1009600043F08003138004F093FC22684FE6B2F852
:10097000503099F82811063303EBC10330F8138087
:10098000C8F30908B8F1000F3FF402AF1046434620
:10099000B9F82E21D9F83C1101F05EFAF8E697F883
:1009A00028110CE7063330F81380C8F30908B8F1B2
:1009B000000F3FF4E5AE43461046B9F83221D9F8AE
:1009C0003C1101F049FA99F82831216801EB8301C3
:1009D000D6E63E2926D84D08CF0748BF0135AD02DF
:1009E000ADB2C5526AE64FF0000C01F007014F01AD
:1009F000E21907F5947782F82811C2F84001C2F88D
:100A00003C31C2F844C182F829C1E119206801F0E3
:100A100075F8226862E600BF8FBFFFFF0F8FFFFFF0
:100A20008F8FFFFF4D09CE06064908BF05F1FF3540
:100A300041EA8525ADB2C55240E610464346B9F8B5
:100A40003021BCE70080FFFF90F82822012A0DD05A
:100A500010B50446012284F8241080F8282200688A
:100A600001F0EAF9002084F8280210BD0220704746
:100A7000F8B501F0070509064FEA45141FD4002711
:100A8000061904F5947186F8297101444C780D70AB
:100A90000A61CB7004B1CD81022B04BF00230B711E
:100AA00090F82832012B12D00123044680F8283216
:100AB000006800F0C5FD002084F82802F8BD012779
:100AC000061904F1280186F829700144DEE70220A6
:100AD000F8BD00BF01F00702090610B54FEA421346
:100AE00016D40024C11803F5947381F82941C11864
:100AF0000A7090F82832012B15D00123044680F8A3
:100B00002832006800F024FF002084F8280210BD7D
:100B10000124C118283381F82940C1180A7090F8BF
:100B20002832012BE9D1022010BD00BF70B500268C
:100B300001F007014D01441905F5947584F8281159
:100B4000C4F83C214119C4F840310068C4F844613C
:100B500084F8296100F0D2FF304670BD01F0070132
:100B600000EB4111D1F84401704700BFF8B50026F1
:100B7000012701F007014D014419283584F8281098
:100B8000C4E90F234119006884F82970666400F0F5
:100B9000B5FF3046F8BD00BF38B5436801F0070522
:100BA0009D421BD80B061BD400244901431883F82F
:100BB0002941012301F5947281180D708B7090F812
:100BC00028229A421BD0044680F82832006801F09F
:100BD000BDF8B5B1002084F8280238BD012038BD29
:100BE00001226B0103F12801034483F8292001232A
:100BF00001440D708B7090F828229A42E3D10220B4
:100C000038BD04F50C71206801F024F9E2E700BF5B
:100C100038B5436801F00F029A421ED801F007026E
:100C200009064FEA42131AD40025C41884F8295142
:100C3000002503F5947101440A708D7090F82832F4
:100C4000012B1AD00123044680F82832006801F0F5
:100C50009FF884F82852284638BD012038BD012568
:100C6000C41884F82950002503F1280101440A70B2
:100C70008D7090F82832012BE4D1022038BD00BFDE
:100C800011F0800F0DD001F0070100EB411028306A
:100C900099B26AB101221B0C4381018102730020C9
:100CA000704700EB411000F5947099B2002AF1D121
:100CB000C180027300207047002800F055812DE9A3
:100CC000F041036882B0DD07044635D5A8494A687B
:100CD00002F00C02042A00F005814A6802F00C02BE
:100CE000082A00F0FB806368B3F5803F10D0002B2A
:100CF00000F02081B3F5A02F00F078819C4B1A689A
:100D000022F480321A601A6822F480221A6004E009
:100D1000974A136843F480331360FFF737FA944D12
:100D2000064605E0FFF732FA801B642800F2F580E2
:100D30002B689A03F6D523689F074DD41A0722D54E
:100D4000A369002B00F0BA8001228A4B884D1A60FB
:100D5000FFF71CFA064605E0FFF718FA801B022889
:100D600000F2DB806B6A9B07F6D5834B834A1B68D6
:100D7000A2FB03235B0A019300BF019B5A1E019251
:100D8000002BF9D123685D0769D5794BDA69D0006A
:100D900000F1EC800125DA6942F08052DA61DB690A
:100DA00003F080530093009B754B1A68D10540F106
:100DB000A380E368012B37D0002B00F0E780052BE0
:100DC0006B4B1A6A00F01F8122F001021A621A6A44
:100DD00022F004021A622CE0654A516811F00C0FEF
:100DE00061D0516801F00C01082959D02369002B0A
:100DF00000F0EB800122634B5D4D1A60FFF7C6F9EE
:100E0000064605E0FFF7C2F9801B022800F2858044
:100E10002B689807F6D52B68626923F0F80343EA3C
:100E2000C2032B60236889E7514A136A43F0010328
:100E30001362FFF7ABF94E4E804641F2883705E06A
:100E4000FFF7A4F9A0EB0800B84266D8336A9B0705
:100E5000F6D525B1464AD36923F08053D361E069C2
:100E6000D0B1434D6A6802F00C02082A00F0D3802A
:100E700002284FF00001444A00F0DE801160FFF7C5
:100E800085F92C46054604E0FFF780F9401B02284F
:100E900043D823689B01F7D4002002B0BDE8F0815D
:100EA0005268D603A2D4324A1268950739D522690E
:100EB000012A36D0012002B0BDE8F0812D4A2C4D28
:100EC0001360FFF763F9064604E0FFF75FF9801B44
:100ED000022822D86B6A9F07F7D453E74A68D003E9
:100EE0007FF501AF224A126891037FF525AF626852
:100EF000002A7FF421AFDDE71A681E4642F48072B3
:100F00001A60FFF743F907463368DA053FF551AF3A
:100F1000FFF73CF9C01B6428F6D9032002B0BDE8F6
:100F2000F081134960690A6822F0F80242EAC002BF
:100F30000A6003E703F1804303F504331A681D4692
:100F400022F480321A601A6822F480221A60FFF7B5
:100F50001DF9064604E0FFF719F9801B6428DCD868
:100F60002B689B03F7D4E6E60120704700251BE7BA
:100F70000010024080044242A0020020D34D6210C3
:100F800000700040000042426000424203F1804392
:100F900003F504331A6A1E4622F001021A621A6A25
:100FA00041F2883822F004021A62FFF7EFF8074690
:100FB00004E0FFF7EBF8C01B4045AED8336A980752
:100FC000F7D4002D3FF44BAF44E7344A344D13605F
:100FD000FFF7DCF8064604E0FFF7D8F8801B02288C
:100FE0009BD82B689907F7D42368A7E603F18043C1
:100FF000A3F53C331A6842F480221A601A6842F45E
:1010000080321A6089E642F004021A621A6A42F0DB
:1010100001021A620DE701283FF44DAF6B68226AA6
:1010200003F4803191427FF445AF606A03F470139A
:10103000181A18BF01203EE71160FFF7A7F806460F
:1010400005E0FFF7A3F8801B02283FF666AF2B6888
:101050009901F6D4226AB2F5803F05D16B68A16888
:1010600023F400330B436B6001250D4B606A596814
:10107000024321F474110B480A435A6005601C4670
:10108000FFF784F8054605E0FFF780F8401B0228CB
:101090003FF643AF23689A01F6D5FDE600004242D1
:1010A000001002406000424278B15D4A136803F0CC
:1010B00007038B420BD2136823F007030B43136023
:1010C000136803F007038B4201D0012070472DE91C
:1010D000F041036886B09D0714D55C0704D5514CD8
:1010E000626842F4E06262601A0704D54D4C62689F
:1010F00042F4605262604B4C8568626822F0F002F4
:101100002A436260DB0704460D4620D54268454B02
:10111000012A1B686FD0022A7ED0980727D5414E3E
:1011200041F28838736823F0030313437360FFF7B9
:101130002DF8074604E0FFF729F8C01B404569D8A1
:101140007368626803F00C03B3EB820FF3D1344A87
:10115000136803F00703AB420DD9136823F00703AC
:101160002B431360136803F00703AB4203D0012045
:1011700006B0BDE8F0812368590706D52949E06823
:101180004A6822F4E06202434A601A0707D5254AFA
:101190002169536823F4605343EAC103536040F26A
:1011A0000122214B06ACADF804200FCB04E90F005F
:1011B0001C494A6802F00C03082B1AD1C2F383437E
:1011C000234413F8100CD30318D4184B03FB00F37B
:1011D000144A174852681749C2F30312805C164A32
:1011E000C3400868136003F039FF002006B0BDE873
:1011F000F081124BECE79F0391D4B8E74A680F4B9C
:10120000C2F3404203FB00F3224412F8142CB3FB58
:10121000F2F3DDE70320ABE79E0180D4A7E700BF30
:1012200000200240001002406C59000800093D00F7
:10123000505A000804000020A002002000127A008A
:10124000044B05495B68054AC3F30223CB5C106875
:10125000D840704700100240605A0008A0020020E9
:101260000F220D4B02605A6810B402F00302426074
:101270005A680A4C02F0F00282605A6802F4E06296
:10128000C2605B68DB0803F4E0630361236810BCA1
:1012900003F007030B60704700100240002002407B
:1012A0002DE9F0410446006882B0C5072AD53A4BC3
:1012B000DA69D1003DD5394B00251A68D20546D5EB
:1012C000354960680A6A12F440720FD000F4407326
:1012D00093420BD0012700260B6A314A23F4407059
:1012E000176016600862D80745D460682A4A136AF6
:1012F00023F44073034313621DB1D36923F0805379
:10130000D3612068830706D5234AA168536823F474
:1013100040430B43536010F0100007D000201E4ADA
:10132000E168536823F480030B43536002B0BDE8C7
:10133000F081DA69012542F08052DA61DB6903F05D
:1013400080530193019B154B1A68D205B8D41A68D3
:101350001E4642F480721A60FEF718FF0746336893
:10136000DB05ADD4FEF712FFC01B6428F7D90320BC
:1013700002B0BDE8F0810E46FEF708FF41F2883763
:101380008046336A9A07B0D4FEF700FFA0EB08004E
:10139000B842F6D9EBE700BF0010024000700040F1
:1013A00040044242704700BF002836D090F83D30DC
:1013B00070B503F0FF0204460BB302232268204EEF
:1013C00084F83D30B2421368A569E068616826D0B0
:1013D000B2F1804F18D0A6F59436B24214D006F57B
:1013E0008066B24210D023F080032B431360D0629A
:1013F000916201230020536184F83D3070BD80F874
:101400003C20FFF7CFFFD8E7A66823F070033343F3
:10141000266923F440733343E5E701207047A6684B
:1014200023F070033343266923F44073334323F0DE
:1014300080032B431360D062916263691363D8E722
:10144000002C01400368DA6842F00102DA609A6811
:1014500002F00702062A03D01A6842F001021A605D
:1014600000207047704700BF704700BF704700BF43
:10147000704700BF036810B51A690446910702D58A
:10148000DA6892075FD41A69500702D5DA68510703
:1014900046D41A69120702D5DA6810072ED41A69E1
:1014A000D20602D5DA68D00618D41A69D10702D557
:1014B000DA68D2075DD41A69100602D5DA68110617
:1014C0005FD41A69520602D5DA68500661D41A69E7
:1014D000910602D5DA68920643D410BD6FF0100170
:1014E00008221961DB69204613F4407F227764D01B
:1014F000FFF7BAFF002223682277D6E76FF00801D2
:1015000004221961DB6920469907227752D1FFF73F
:10151000A9FF2046FFF7AAFF002223682277BEE733
:101520006FF00401022219619B69204613F4407F89
:1015300022773CD1FFF796FF2046FFF797FF002266
:1015400023682277A5E76FF00201012219619B69E8
:1015500002779B0725D0FFF787FF002223682277B9
:1015600091E76FF020022046BDE810401A6100F0BC
:101570002BB86FF0010220461A6103F03BFD23688F
:1015800099E76FF0800220461A6100F01FF8236887
:1015900097E76FF0400220461A61FFF769FF236862
:1015A00095E7FFF75FFF2046FFF760FFD5E7FFF7FE
:1015B0005BFFC4E7FFF758FFAEE7FFF753FF204696
:1015C000FFF754FF96E700BF704700BF704700BFAA
:1015D00084B001A880E80E0004B00020704700BF6E
:1015E0000246B0F84030002043F43F43A2F84030B8
:1015F000704700BF44F2FF030246B0F840100020DD
:101600000B40A2F8403070470020704784B070B49F
:10161000044601250020A4F84050A4F84000A4F896
:101620004400A4F85000B4F8406004AD46F43F46CE
:10163000A4F8406085E80E0070BC04B0704700BF9D
:1016400070B40D78034630F82540BC4AC878224073
:10165000032800F24281DFE800F04E46024A0020F3
:1016600048F28004224323F825200D78B44E33F845
:1016700025202C433240224323F825200A7B002AD0
:101680003DD1CC880A784D786408640003EB0212DF
:10169000002D00F0E880B3F850502A44A2F800442E
:1016A0000A7833F8225003EB82046D060BD533F829
:1016B0002240264046F4004646F0C00623F8226049
:1016C0000C7803EB8404CB78012B00F02081228876
:1016D0009C4B134083F0200343F4004343F080030A
:1016E000238070BC704742F480620020B8E742F467
:1016F000C0620020B4E742F400720020B0E70C782A
:1017000033F82420324042F4014242F0800223F8B0
:1017100024200A780C89B3F8505003EB02126408B5
:1017200002F580626400ADB254530A784C89B3F874
:10173000505003EB0212640802F581626400ADB2FE
:1017400054534A78002A42D10A7833F8225003EBE6
:1017500082046D040BD533F82240264046F44046FF
:1017600046F0800623F822600C7803EB840422887C
:1017700056060CD5228822F0F0021205120D42F412
:10178000004242F0C00222800C7803EB840448F24D
:10179000800622886C4D22F0F0021205120D42F4F0
:1017A000004242F0C00222800C7833F824202A4004
:1017B00082F44052324323F824200978614A33F8F6
:1017C00021402240324323F8212070BC70470A7820
:1017D00033F8225003EB82046D040BD533F822401A
:1017E000264046F4404646F0800623F822600C78F6
:1017F00003EB8404228852060CD5228822F0F002E2
:101800001205120D42F4004242F0C00222800C7810
:1018100003EB8404228822F0F0021205120D42F438
:10182000404242F080022280CA780C78012A61D0BE
:1018300033F82450434A2A4082F0200242F4004206
:1018400042F0800223F82420097870BC33F821206C
:1018500022F0F0029204920C42F4004242F0800224
:1018600023F821207047B3F850600D693244A2F884
:1018700008440A78B3F8504003EB021202F20C421B
:10188000A4B265B33E2D4DD86E08ED0748BF0136B2
:10189000B602B6B216530C7833F8245003EB840228
:1018A0006E040ED533F8242022F0F0021205120D3A
:1018B00042F4404242F0800223F824200A7803EBED
:1018C00082021188204B70BC0B4083F4405343F4D8
:1018D000004343F08003138070470120C0E6155B8E
:1018E00025F4F8452D042D0C1553155B45F40045E2
:1018F0001553D0E733F8242022F0C0021205120D50
:1019000042F4004242F0800223F824209CE723881E
:1019100023F0C0031B051B0D43F4004343F0800379
:10192000238052E76E09ED06084D08BF06F1FF3629
:1019300045EA8625ADB21553ADE700BF8F89FFFF9D
:101940008F8FFFFFBF8FFFFF8FBFFFFF0080FFFF65
:1019500030B40A780D7B00EB82034C7815BB002C69
:1019600000F0998030F8224064060ED530F822301D
:1019700023F0F0031B051B0D43F4004343F0C003A9
:1019800020F822300B7800EB83031A88002030BC4B
:1019900022F0C0021205120D42F4004242F0800211
:1019A0001A807047002C41D130F8224064040ED5D3
:1019B00030F8223023F0F0031B051B0D43F44043A5
:1019C00043F0800320F822300B7800EB83031A8861
:1019D00055060CD51A8822F0F0021205120D42F4B9
:1019E000004242F0C0021A800B7800EB830348F2F9
:1019F00080051A883F4C22F0F0021205120D42F4C5
:101A0000004242F0C0021A800A7830F822302340A7
:101A10002B4320F822300A78374B30F822100B4045
:101A20001D4320F82250002030BC704730F822407F
:101A300064040ED530F8223023F0F0031B051B0D93
:101A400043F4404343F0800320F822300B7800EB4E
:101A500083031A8852063ED448F280051A88264C21
:101A600022F0F0021205120D42F4404242F08002D0
:101A70001A800A7830F8223023402B4320F8223095
:101A80000A781C4B30F822100B401D4320F82250DE
:101A9000002030BC704730F8224065040ED530F885
:101AA000223023F0F0031B051B0D43F4404343F0A9
:101AB000800320F822300B7800EB83031A88002083
:101AC00030BC22F0F0029204920C42F4004242F048
:101AD00080021A8070471A8822F0F0021205120D57
:101AE00042F4004242F0C0021A800B7800EB8303FC
:101AF000B2E700BF8FBFFFFFBF8FFFFFF0B44C788E
:101B00008B69012C0A695AD0934298BF00260D7B3D
:101B100088BF9E1A8E6188BF13460A7815BBB0F83D
:101B2000505000F20C4412012C44002B00F0A8800D
:101B30003E2B00F2C9805D08DB0748BF0135AD02CE
:101B4000ADB2A5520A7830F822107D4BF0BC0B40A4
:101B500083F4405343F4004343F0800320F82230E1
:101B600000207047002CEED1B0F8505000F2044431
:101B700012012C44002B40F0B380A55A714E25F47D
:101B8000F8452D042D0CA552A55A45F40045A55243
:101B90004C78002C40F0AF80B0F850300A7800F25A
:101BA0000C4412011C44A35A23F4F8431B041B0CDD
:101BB000A352A35A33439BB2A3520A78C3E793427A
:101BC00086BF9C1A134600249AB20D7B0132560838
:101BD0008C619BB24A6900F580676DB30D7830F86F
:101BE00025402D016406B0F850C055D500F20C44D4
:101BF000644463534C8907EB44043EB102EB460353
:101C000032F8025B934224F8045BF9D10C784B78EC
:101C100000EB8402002B45D130F8243023F0F00390
:101C20001B051B0D43F4004343F0C00320F8243090
:101C30000A7800EB820216E0CC8807EB44043EB140
:101C400004EB860632F8025B24F8045BA642F9D165
:101C5000B0F850500C7800F204422A442401A352F8
:101C60000A7800EB82021188374B0020F0BC0B4051
:101C700083F0300343F4004343F080031380704744
:101C8000A35A23F4F8431B041B0CA352A35A43F496
:101C90000043A3520A7856E700F2044464446353B5
:101CA0000C89A8E7012BDED130F8243023F0F003B3
:101CB0001B051B0D43F4404343F0800320F8243000
:101CC0000A7800EB8202CEE75D09DF061D4B08BFF4
:101CD00005F1FF3543EA85239BB2A3520A7832E728
:101CE0003E2B16D85D08DE0748BF0135AD02ADB208
:101CF000A5524C78D4B1012C0A787FF424AFB0F807
:101D0000505000F20C4412019BB22C44A3520A78AA
:101D100019E75E09DD060B4D08BF06F1FF3645EAFF
:101D20008625ADB2A5524C78002CE4D1B0F85040D5
:101D30000B7800F20C4222441B01D5520A7802E7CC
:101D40008FBFFFFF0080FFFFBF8FFFFF4B780A7838
:101D500030F822105BB90C4B0B4083F4805343F4F2
:101D6000004343F0800320F8223000207047074BE7
:101D70000B4083F0100343F4004343F0800320F84A
:101D800022300020704700BF8FBFFFFFBF8FFFFFD3
:101D90000B7B002B39D110B40B784C7800EB83020D
:101DA00014B330F8232052060BD530F8232022F04C
:101DB000F0021205120D42F4004242F0C00220F877
:101DC0002320CB78012B1DD00A78194B30F8221034
:101DD00010BC0B4083F0200343F4004343F0800326
:101DE00020F822300020704730F8234064040ED4DD
:101DF0001188104B0B4083F4405343F4004343F0ED
:101E000080031380002010BC70470020704730F81A
:101E1000232022F0F0021205120D42F4404242F05B
:101E2000800220F823200A7800EB8202E0E700BF5E
:101E3000BF8FFFFF8FBFFFFF11B98023A0F84C3089
:101E4000002070470020704700207047B0F8440021
:101E5000704700BF0020704700EB4202580802F5AF
:101E600080621AD0F0B4174606468D1C37F8044B32
:101E7000013EA4B24FEA142C05F8024C05F801CC3F
:101E800005F10205F2D1F0BC01EB400102EB80024A
:101E9000D80744BF13880B707047DB0744BF138813
:101EA0000B707047D0F8BC3283B110B5D0F8B8428F
:101EB00094F80002FF2807D09B6894F8012221467D
:101EC0009847FF2384F80032002010BD002070479F
:101ED00043230380004870474000002043230380D1
:101EE0000048704784000020432303800048704767
:101EF000D40000200A23038000487047C800002057
:101F000038B50446D0F8B85203F0C6FAD4F8B8325F
:101F1000C5F80C024BB1D4F8BC3205F50371DB688F
:101F2000D5F804029847002038BD022038BD00BF14
:101F3000F8B5D0F8B862D6B101EB810300EB8303AA
:101F4000DF694FB1D0F8C02202EB4115AA6BB7FB95
:101F5000F2F402FB14741CB10020C6F81402F8BDA0
:101F6000DC612246234603F07BFA2046F8BD0220BE
:101F7000F8BD00BF2DE9F04100270B7882B013F0C7
:101F800060040D460646D0F8B8828DF80570ADF8AD
:101F900006700FD0202C17D1CC8891F801C064BBFB
:101FA000D0F8BC32224660469B689847204602B073
:101FB000BDE8F0814F780A2F14D00B2F0CD01FB939
:101FC00090F89C32032B28D03046294600F09EFC26
:101FD000022002B0BDE8F08190F89C32032BF3D1CF
:101FE0002046F6E790F89C32032BEDD101220DF14B
:101FF000050100F0BDFC2046EBE71B0614D5D0F828
:10200000BC32224660469B6841469847EA88414672
:10201000304600F0ADFC3846DBE702220DF1060148
:1020200000F0A6FC3846D4E788F800C288F80142E0
:102030002246414600F0B2FC3846CAE738B50446AD
:102040000025812103F0C4F90121E562204603F057
:10205000BFF9C4F86C512046822103F0B9F9D4F8D5
:10206000B83225644BB1D4F8BC325B689847D4F8D9
:10207000B80203F019FAC4F8B852002038BD00BF06
:10208000037C2DE9F04104460125BBBB4FF40073EE
:102090000222812103F08CF9E56229464FF4007396
:1020A0000222204603F084F9C4F86C51012708236A
:1020B00003228221204603F07BF927644FF4077046
:1020C00003F0EEF90546C4F8B80268B30026D4F868
:1020D000BC321B68984794F81080D5F80422C5F8E4
:1020E00014623946C5F818622046B8F1000F14D0C2
:1020F000402303F0C3F93046BDE8F08140230222BB
:10210000812103F055F9E562294640230222204649
:1021100003F04EF9C4F86C51C8E74FF4007303F0B4
:10212000ADF94046BDE8F0813846E5E719B1C0F8A1
:10213000BC12002070470220704700BFD0F8B832B0
:102140000020C3F80812C3F810227047D0F8B83244
:102150000020C3F804127047D0F8B8229AB138B5FD
:10216000D2F814420CB1012038BD0125D2F810126A
:10217000C2F814528BB2D2F808220163812103F015
:102180006FF9204638BD0220704700BFD0F8B82252
:102190008AB110B5047CD2F804222CB1402301216D
:1021A00003F06CF9002010BD4FF40073012103F01F
:1021B00065F9204610BD0220704700BF88B108B500
:1021C000D0F8B43213B10023C0F8B43209B1C0F86A
:1021D000B0120123027080F89C3203F099F80020BD
:1021E00008BD0220704700BF19B1C0F8B41200202A
:1021F00070470220704700BF08B503F0CBF80020FD
:1022000008BD00BF08B5D0F8B4321BB11B689847B1
:1022100000B908BD022008BD08B5D0F8B4325B682B
:102220009847002008BD00BF38B5044600F52A7560
:10223000284600F057FB012094F8A812B4F8AE220B
:1022400001F01F038342C4F89402C4F8982215D009
:102250000ED3022B06D001F08001204603F0C6F811
:10226000002038BD2946204600F0A6FA002038BDDF
:102270002946204600F0F6F8002038BD29462046C1
:1022800000F06EFA002038BD70B5054641B9D0F8AF
:102290009432032B0FD0052B0C462ED0002070BD9E
:1022A000D0F8B4329B69C3B190F89C22032A14D1B0
:1022B0009847002070BD1646D0F86031D0F86421F0
:1022C00093420CD99B1A9A42C0F860318CBF9AB2E3
:1022D00092B2314600F072FBE0E7022070BDD0F808
:1022E000B4321B6923B190F89C22032A00D198478D
:1022F000284600F06BFB002070BDC5F8941203F077
:1023000075F8204670BD00BF70B5044681B913460C
:10231000D0F89422022A19D032F0040302D180218D
:1023200003F064F894F8A0320020012B0BD070BDAC
:10233000D0F8B4325B6963B390F89C22032A28D1A9
:102340009847002070BD84F8A00270BDD0E90862F3
:10235000964220D8C369B3FBF2F502FB15350DB9DF
:102360009A4226D9D4F8B432DB682BB194F89C2277
:10237000032A01D1204698478021204603F036F8F1
:10238000204600F02FFB94F8A0320020012BCED184
:10239000D9E7022070BDB21A0D460262194692B208
:1023A00000F0F4FA2B462A462946204603F066F848
:1023B000B8E7D0F898229342D4D22A4600F0E6FA41
:1023C000C4F89852EEE700BF70B5002240260446DC
:1023D00001251146334602F0EBFF33468021C4F855
:1023E0005851C4F864612046002202F0E1FF002148
:1023F000D4F8B832A561666284F89C52C4F894128D
:102400006160C4F8A41223B1D4F8B43220465B68EA
:102410009847002070BD00BF01740020704700BFC6
:102420000346042290F89C12002083F89D1283F842
:102430009C22704790F89C32042B04BF90F89D3288
:1024400080F89C320020704790F89C22032A01D02B
:102450000020704708B5D0F8B432DB6903B1984763
:10246000002008BD30B50B7883B003F06003202B4B
:102470000D46044628D0402B26D053B1802120465B
:1024800002F0B4FF2046002102F0B0FF002003B0AC
:1024900030BD4B78092BF1D801A252F823F000BFD0
:1024A0001D250008492500087D2400086525000831
:1024B0007D24000871250008AF2500087D24000850
:1024C000E5250008DB240008D4F8B43229469B68CF
:1024D00020469847002003B030BD89789F4D0129E0
:1024E0002970CBD890F89C32022B00F00D81032B81
:1024F00040F0FE80002900F027814168012909D0C1
:10250000C9B2FFF789FE297820466160FFF77AFE9D
:102510000228B3D0204600F059FAB7E790F89C3271
:102520000322013B022BA9D8CB88022BA6D1012183
:10253000D0F8A432C16003B1C260022204F10C01E0
:10254000204600F015FAA1E790F89C32013B022BDF
:1025500094D84B88012B99D10023C0F8A43200F005
:1025600035FA93E74B88012B90D1C0F8A432D1E71C
:102570008B88002B82D1CB88002B7FF47FAF4D88D6
:102580007F2D3FF67BAF90F89C32032B3FF476AF64
:10259000E9B280F89E1202F055FF204600F016FACC
:1025A000002D00F0CD80022384F89C326EE70023DA
:1025B0004A88ADF80630130A013B062B3FF65EAFA2
:1025C00001A151F823F000BF7D2600086526000810
:1025D0008D2600087D2400087D2400084F26000871
:1025E0000B260008CA88012A7FF448AF90F89C3275
:1025F000002B3FF443AF022B40F29480032B7FF477
:102600003DAF011D00F0B4F940E7037C002B7FF4DF
:1026100035AFD0F8B4320DF106001B6B9847072395
:102620004370BDF80630EA886BB1002A3FF472AF00
:10263000934228BF134601461A462046ADF806309D
:1026400000F096F9EA88002A7FF420AF62E7037C65
:10265000002B7FF413AFD0F8B4320DF106005B6BA2
:102660009847DEE7027CD0F8B432002A61D19B6A39
:102670000DF10600984702234370D2E7D0F8B0323C
:102680000DF106011B68007C9847CAE7D2B2052A03
:102690003FF6F4AEDFE802F026201A140E03D0F85D
:1026A000B0329B69002B3FF4E9AE0DF10601207CAE
:1026B0009847B6E7D0F8B0325B69002BF5D1DDE67C
:1026C000D0F8B0321B69002BEFD1D7E6D0F8B0328A
:1026D000DB68002BE9D1D1E6D0F8B0329B68002B43
:1026E000E3D1CBE6D0F8B0325B68002BDDD1C5E694
:1026F000802102F07BFE0021204602F077FE29783F
:102700002046FFF789FDC1E600293FF403AF012110
:102710000323416080F89C32FFF774FD02287FF4A8
:10272000F9AEABE60023014641F8083F00F020F97E
:10273000ACE6DB6A0DF1060098470223437070E7B0
:10274000012384F89C32A1E60223416080F89C3288
:10275000FFF762FD204600F039F997E6F00400200B
:1027600038B50B780D4603F06003202B04460CD0DF
:10277000402B0AD04BB18021204602F037FE204684
:10278000002102F033FE002038BD94F89C32013B5A
:10279000022BF0D82B79012BEDD8D4F8B43229468E
:1027A0009B6820469847EB88002BECD10028EAD1A3
:1027B000204600F00BF9E6E770B50B78044603F00D
:1027C0006003202B0CD0402B0AD083B180212046FF
:1027D00002F00CFE2046002102F008FE002070BD31
:1027E000D4F8B43220469B689847002070BD4B78DF
:1027F0008A88012BD5B23ED014D3032BE6D190F8B2
:102800009C32022B46D0032BE0D14B8833B96A06A9
:1028100004D0CB8813B9294602F0E8FD204600F029
:10282000D5F8DBE790F89C32022B3DD0032BCDD1BD
:1028300005F00F0303EB8303120600EB830342D47E
:10284000D3F85831002BC1D005F07F0303EB83068A
:1028500000EB860606F5AA7633B12946204602F03B
:10286000E1FD00283BD0012333603146204602229F
:1028700000F07EF8B2E790F89C32022B0AD0032BCE
:10288000A4D14B88002BA9D16E06C7D0294602F0EF
:10289000BBFDC3E76B0699D0294602F0A7FD204691
:1028A000802102F0A3FD99E768068FD1002311066D
:1028B0004CBF04F1140104F5AA7120460B600222FA
:1028C00000F056F88AE79B69002B3FF47FAF05F0D4
:1028D0007F035E1C06EB860600EB8606BCE73060D5
:1028E000C3E700BF0B7803704B784370CA788B78CE
:1028F00003EB022343804A790B7903EB02238380A5
:10290000CA798B7903EB0223C380704710B5044664
:10291000802102F06BFD2046BDE81040002102F04E
:1029200065BD00BF00B3037830B4F3B104460023A3
:1029300014F8015F0133DBB2002DF9D15B000233E3
:10294000032413800B704C7004785CB102230025C3
:102950005A1CD2B2CC548D5410F8014F0233DBB262
:10296000002CF5D130BC704770470223E8E700BF68
:1029700038B5134602250A46C0E90733C0F8945219
:10298000002102F06DFD002038BD00BF08B51346E0
:102990000A46002102F064FD002008BD38B5134648
:1029A00003250A46C0F85C31C0F86031C0F8945283
:1029B000002102F063FD002038BD00BF08B51346BA
:1029C0000A46002102F05AFD002008BD08B5042285
:1029D0000023C0F8942219461A4602F041FD002057
:1029E00008BD00BF08B505220023C0F8942219468F
:1029F0001A4602F043FD002008BD00BF08B500F0F4
:102A000025FE002008BD00BF30B5B0F908400246E1
:102A1000842C08BF002485B018BF033403AD0B46D7
:102A200040681168128ACDE9004500F0D9FC012800
:102A300014BF0020039805B030BD00BF08B50028C2
:102A400008BF012001F030F8002008BD4FF0FF3131
:102A5000002200F10803816002604360C0E9033393
:102A6000704700BF00230361704700BF436810B484
:102A70009C6802688C609C6801324B606160996060
:102A800010BC08610260704730B40D686B1C11D037
:102A900000F1080200E01A4653681C68AC42FAD9FB
:102AA00004684B60013499608A6051600861046079
:102AB00030BC704702695368F2E700BF036910B485
:102AC000D0E901215C689160816884424A6008BF56
:102AD000596000211A680161013A1A60186810BC37
:102AE000704700BF70B5054601F0B4FA95F845404F
:102AF00064B2002C16DD6B6AA3B105F1240605E073
:102B0000013CE3B25CB26BB16B6A5BB1304601F081
:102B10007DF80028F4D0013C01F010F9E3B25CB27A
:102B2000002BF1D1FF2385F8453001F0B5FA01F013
:102B300091FA95F8444064B2002C16DD2B69A3B1DC
:102B400005F1100605E0013CE3B25CB26BB12B6904
:102B50005BB1304601F05AF80028F4D0013C01F096
:102B6000EDF8E3B25CB2002BF1D1FF2385F84430DD
:102B7000BDE8704001F090BA40B94FF0500383F3C4
:102B80001188BFF36F8FBFF34F8FFEE770B5064616
:102B90000D4651B101FB00F0483001F099FB0446AD
:102BA00058B300F14803036005E0482001F090FBB2
:102BB000044610B32460C4E90F6501F04BFAD4E970
:102BC0000F32FF25002003FB02F321689A1A0A4402
:102BD0000B44A063E260C4E9013104F1100084F801
:102BE000445084F84550FFF731FF04F12400FFF70B
:102BF0002DFF01F051FA204670BD0024204670BD23
:102C00002DE9F04F85B00192002800F025810029C0
:102C100000F01581022B0BD1C26B012A08D04FF0B6
:102C2000500383F31188BFF36F8FBFF34F8FFEE71D
:102C300004461F460E4601F087F8002840F0FC804D
:102C4000019B43B14FF0500383F31188BFF36F8FA3
:102C5000BFF34F8FFEE79A4601F0FCF9A26BE36BDE
:102C60004FF000089A42DFF8B89275D3022F00F0B7
:102C7000FC80019D002D00F04E81BAF1000F02D1C1
:102C800002A801F009F801F007FA00F0CFFD01F009
:102C9000E1F994F84430FF2B08BF84F8448094F89D
:102CA0004530FF2B08BF84F8458001F0F5F901A9F4
:102CB00002A800F0FDFF002840F0268101F0CAF9CB
:102CC000A26BE36B9A426AD001F0E6F901F0C2F917
:102CD00094F845506DB2002D11DD636A7BB104F1AB
:102CE000240A01E0636A53B1504600F08FFF08B137
:102CF00001F024F8013DEBB25DB2002BF2D1FF23CD
:102D000084F8453001F0C8F901F0A4F994F8445072
:102D10006DB2002D11DD23697BB104F1100A01E0D1
:102D2000236953B1504600F071FF08B101F006F875
:102D3000013DEBB25DB2002BF2D1FF2384F84430A9
:102D400001F0AAF900F026FE01F084F9A26BE36B12
:102D50004FF0010A9A4289D2226CA56B002A00F03A
:102D600087803146002F40F0BB80A06802F0EDFC68
:102D7000A368216C62680B44934205F10105A360CE
:102D800079D3A5632268636AA260002B77D004F12F
:102D9000240000F03BFF002840F082806FE004F147
:102DA000100A01F079F95046019900F0DFFE01F0B8
:102DB00051F994F845506DB2002D11DD636A7BB175
:102DC00004F1240B01E0636A53B1584600F01EFF82
:102DD00008B100F0B3FF013DEBB25DB2002BF2D1C0
:102DE000FF2384F8453001F057F901F033F994F8E6
:102DF00044506DB2002D0ADC0CE0504600F006FF96
:102E000008B100F09BFF013DEBB25DB213B1236945
:102E1000002BF2D1FF2384F8443001F03DF900F09B
:102E2000B9FD002890D14FF08053C9F80030BFF3AE
:102E30004F8FBFF36F8F87E74FF0000A0CE7026CEC
:102E4000002A3FF4E7AE4FF0500383F31188BFF33D
:102E50006F8FBFF34F8FFEE74FF0500383F311885E
:102E6000BFF36F8FBFF34F8FFEE7226CA56B02BBE2
:102E7000266801354EB1A563636A002B87D101F046
:102E80000BF9012005B0BDE8F08F606800F0C2FFCB
:102E9000A563636A6660002B7FF479AF0028EED0EB
:102EA0004FF080521E4B1A60BFF34F8FBFF36F8FEE
:102EB000E5E73146E06802F048FC236CE2685B42DB
:102EC00021681A449142E26016D962681344E360B3
:102ED000022F11D00135A563636A002BCFD056E7CE
:102EE000E06802F032FC236CE2685B4221681A441D
:102EF0008A42E260ECD2E8E7002DBCD10123A36353
:102F0000636A002BBBD042E72046FFF7EBFD00F0E1
:102F100041FD0020B6E701F0BFF82846B2E700BF48
:102F200004ED00E070B3036C43B14FF0500383F342
:102F30001188BFF36F8FBFF34F8FFEE7036853B362
:102F400070B504460D4601F06DF9EFF311864FF0B0
:102F5000500383F31188BFF36F8FBFF34F8FA26BC2
:102F6000E36B934231D994F8453001325BB2A263EE
:102F70005A1C1CD001335BB284F84530012086F323
:102F8000118870BD4FF0500383F31188BFF36F8F2A
:102F9000BFF34F8FFEE74368002BD1D04FF05003B3
:102FA00083F31188BFF36F8FBFF34F8FFEE7636A20
:102FB000002BE3D004F1240000F028FE0028DDD02F
:102FC000002DDBD001202860D9E70020D7E700BF23
:102FD0002DE9F04385B0019150B1056C8DB14FF0F2
:102FE000500383F31188BFF36F8FBFF34F8FFEE75A
:102FF0004FF0500383F31188BFF36F8FBFF34F8FF0
:10300000FEE7044600F0A0FE50B9019D45B14FF027
:10301000500383F31188BFF36F8FBFF34F8FFEE729
:1030200001F018F8A36B2E460027DFF8B482002BBE
:1030300040F0B380019B002B00F0298116B902A853
:1030400000F02AFE01F028F800F0F0FB01F002F891
:1030500094F84430FF2B08BF84F8447094F845304E
:10306000FF2B08BF84F8457001F016F801A902A8EB
:1030700000F01EFE002844D100F0ECFFA36B002BF3
:1030800000F09D8001F008F800F0E4FF94F845603E
:1030900076B2002E10DD636A73B104F1240948464C
:1030A00000F0B4FD002840F08780013EF3B25EB22C
:1030B00013B1636A002BF2D1FF2384F8453000F08E
:1030C000EBFF00F0C7FF94F8446076B2002E10DDED
:1030D000236973B104F11009484600F097FD0028F8
:1030E00040F0BF80013EF3B25EB213B12369002B02
:1030F000F2D1FF2384F8443000F0CEFF00F04AFC08
:1031000044E000F0A7FF94F8456076B2002E11DD90
:10311000636A7BB104F1240901E0636A53B1484654
:1031200000F074FD08B100F009FE013EF3B25EB29A
:10313000002BF2D1FF2384F8453000F0ADFF00F002
:1031400089FF94F8446076B2002E11DD23697BB1CB
:1031500004F1100901E0236953B1484600F056FD1F
:1031600008B100F0EBFD013EF3B25EB2002BF2D1EC
:10317000FF2384F8443000F08FFF00F00BFC00F0D8
:1031800069FFA36B002B7BD000F086FF00F062FF8D
:10319000A36B0126002B3FF44DAF2268013BA363D4
:1031A00012B900F0F1FE60602369002B40F08880C6
:1031B00000F072FF012566E000F0C0FD75E700F049
:1031C0006BFF2368002B52D004F124094846019973
:1031D00000F0CCFC00F03EFF94F8456076B2002E83
:1031E00004DC11E0013EF3B25EB26BB1636A5BB125
:1031F000484600F00BFD0028F4D0013E00F09EFD93
:10320000F3B25EB2002BF1D1FF2384F8453000F019
:1032100043FF00F01FFF94F8446076B2002E0EDDED
:10322000236963B104F11009484600F0EFFCD8B9F6
:10323000013EF3B25EB213B12369002BF4D1FF2338
:1032400084F8443000F028FF00F0A4FB00289DD152
:103250004FF08053C8F80030BFF34F8FBFF36F8F2C
:1032600094E700F06BFD3DE700F068FDE0E700F05B
:10327000F1FE606800F078FD054600F00DFFA3E761
:1032800000F00AFF6DB9284605B0BDE8F083A5B18E
:103290004FF0500383F31188BFF36F8FBFF34F8F4D
:1032A000FEE700F0D7FE616A19B1236B1968C1F11E
:1032B0000701606800F00AFE002500F0EDFEE2E77D
:1032C00004F1100000F0A2FC00283FF471AF4FF0B1
:1032D0008052034B1A60BFF34F8FBFF36F8F67E7C6
:1032E00004ED00E080B54FF0805A154D154F164E95
:1032F000DFF85880DFF8589014E000F0ABFEFB6870
:10330000DC68201DFFF7DAFB3368013B33602B6874
:10331000013B2B6000F0C0FE206B01F06DF82046F1
:1033200001F06AF82B68002BE7D1D8F80030012BA8
:10333000F8D9C9F800A0BFF34F8FBFF36F8FF1E743
:1033400090050020040600208C05002000050020C8
:1033500004ED00E0F8B51B4B1B4E1C6833680546B6
:10336000181D0F46FFF7AAFB40B901223368174921
:10337000D86A0B68824023EA02030B606B1C17D0EB
:10338000336864195C600BD2114B186831680431E2
:10339000FFF77AFB0F4B1A68A24288BF1C60F8BD8A
:1033A0000D4B18683168BDE8F8400431FFF76CBB7D
:1033B000002FE5D0316809480431BDE8F840FFF737
:1033C00055BB00BF18060020F4040020A005002013
:1033D000F8040020D0050020FC040020F0050020A7
:1033E0002DE9F84F4FEA820A804650460D4699462D
:1033F0000B9F00F06DFF002800F008810646542066
:1034000000F066FF0446002800F0D38006632B78A6
:10341000AAF1040A80F834302B78564426F0070AC3
:10342000002B4DD06B7880F835306B78002B47D06F
:10343000AB7880F83630AB78002B41D0EB7880F851
:103440003730EB78002B3BD02B7980F838302B7954
:10345000002B35D06B7980F839306B79002B2FD069
:10346000AB7980F83A30AB7953B3EB7980F83B30E5
:10347000EB792BB32B7A80F83C302B7A03B36B7A41
:1034800080F83D306B7ADBB1AB7A80F83E30AB7AB6
:10349000B3B1EB7A80F83F30EB7A8BB12B7B80F8BD
:1034A00040302B7B63B16B7B80F841306B7B3BB151
:1034B000AB7B80F84230AB7B13B1EB7B80F84330C1
:1034C0000A9D4FF0000B062D28BF0625261DE5623C
:1034D0006564304684F843B0C4F848B0FFF7C2FAD8
:1034E000C5F1070504F11800FFF7BCFAC4F84CB0A9
:1034F000A561246184F850B064624A464146504652
:1035000000F07EFD206007B13C6000F0A3FD414A61
:10351000414F1368013313603B68002B3FD0DFF845
:103520001881E36AD8F8002072B3DFF81091012502
:10353000DFF80CE1DFF80CC105FA03F203EB8303BB
:10354000314609EB8300DEF80060DCF800303243DE
:103550002B44CCF80030CEF80020FFF787FA00F0BB
:103560009BFDD8F80030BBB13A68E36AD26A9A4250
:1035700012D24FF08052294B1A60BFF34F8FBFF326
:103580006F8F2846BDE8F88F3A68DFF8B090D26AAE
:103590009A4298BF3C60CAE72846BDE8F88F3C6075
:1035A0001368012B0CD0E36ADFF89090DFF8888075
:1035B000BDE7304600F020FF4FF0FF30BDE8F88F48
:1035C000DFF878904D4609F18C0828461435FFF74E
:1035D0003DFA4545F9D1DFF87080114D4046FFF7BF
:1035E00035FA2846FFF732FA0E48FFF72FFA0E4851
:1035F000FFF72CFA0D48FFF729FA0D4B0D4AC3F8D7
:103600000080E36A1560DFF8308090E74FF0FF300C
:10361000B8E700BF8C050020F404002004ED00E0B2
:10362000B8050020D805002004060020F005002081
:10363000F8040020FC040020EC0500200005002018
:10364000A00500209C050020A40500202DE9F843DA
:103650004FF4007000F03CFE002800F09380064616
:10366000542000F035FE0446002800F08880002534
:103670005B4B071D4363066380F8385080F8435066
:10368000C562C0E911553846FFF7ECF904F118009E
:10369000FFF7E8F9072306F5FE7626F007062A4627
:1036A000E564A3614F493046246184F85050646258
:1036B00000F0A6FC4C4B20601C6000F0CBFC4B4B98
:1036C000DFF858811A6801321A60D8F80020002A01
:1036D0004CD0474EE06A3368002B3ED0454D012365
:1036E000DFF83CE1DFF83CC1834000EB8000DCF810
:1036F000002005EB8000DEF8005001322B433946F4
:10370000CEF80030CCF80020FFF7B0F900F0C4FC90
:1037100033686BB1D8F80020E36AD26A9A4207D2C4
:103720004FF08052344B1A60BFF34F8FBFF36F8F4F
:103730004FF0500383F31188BFF36F8FBFF34F8FA8
:103740004FF0FF34012100222C4B2D4804603160E2
:103750001A60BDE8F84300F009BDD8F80030254DE7
:10376000DB6A834298BFC8F80040B8E7C8F8004059
:103770001B68012B0FD0E06A1E4D1D4EAFE730468F
:1037800000F03AFE4FF0500383F31188BFF36F8FC0
:10379000BFF34F8FFEE7174D2E4605F18C093046DB
:1037A0001436FFF753F9B145F9D1DFF87C90154E87
:1037B0004846FFF74BF93046FFF748F91248FFF744
:1037C00045F91248FFF742F91148FFF73FF9114A4E
:1037D000114BC2F80090E06A1E60054E7FE700BF03
:1037E00049444C45E5320008CC0500208C050020FA
:1037F000EC0500200005002004ED00E01806002084
:10380000D0050020B8050020D805002004060020BF
:10381000F0050020F8040020FC040020F40400203F
:10382000A00500209C050020A4050020024A136882
:1038300001331360704700BF980500202DE9F84F51
:10384000494B1B68CBB9494B1E6801361E600EB34D
:10385000DFF838B1DBF800200025B24228D9444F08
:10386000DFF82C81D8F80030DB6A03EB83039B0080
:10387000FB58022B28BF012504E000253D4A1368B0
:10388000013313603C4B1B68002B0CBF2846012002
:10389000BDE8F88F394C23681B68002B47D04FF0E8
:1038A000500383F31188BFF36F8FBFF34F8FFEE791
:1038B000324C2F4FDFF8D8802DE02268D268D2F842
:1038C0000C90D9F8041009F1040A8E422CD350460A
:1038D000FFF7F4F8D9F8281009F1180009B1FFF73B
:1038E000EDF80121264AD9F82C00136801FA00FCF2
:1038F00000EB8000514607EB80004CEA030CC2F855
:1039000000C0FFF7B3F8D8F80000D9F82C10C26A4D
:10391000914228BF012522681268002ACDD14FF0BC
:10392000FF32CBF800209DE7CBF800109AE7154B4B
:1039300021681868144A2060196013680133136005
:1039400023681B6833B94FF0FF32DFF840B0CBF883
:1039500000207FE72268DFF834B0D268D26852686E
:10396000CBF8002076E700BF98050020180600205D
:1039700000050020940500201C060020F80400200B
:10398000A0050020FC040020D4050020D005002064
:10399000F40400202DE9F84F384C236843B94FF068
:1039A000500383F31188BFF36F8FBFF34F8FFEE790
:1039B00000F050FB2368013B236024687CBB304B44
:1039C0001B6863B32F4DDFF8D4A02F4EDFF8D090E3
:1039D000DFF8D0B0DAF800303BB30127DAF80C306A
:1039E000DC6804F1040804F11800FFF767F84046AA
:1039F000FFF764F8E06A326807FA00F300EB800032
:103A00001343414609EB80003360FFF72FF8DBF8E2
:103A10000030E26ADB6A9A42DCD32F60DAE70024E6
:103A200000F03AFB2046BDE8F88F3CB1174B1A680E
:103A30001268DAB94FF0FF32154B1A60154E346830
:103A40003CB10127FFF7FAFE00B12F60013CF9D12C
:103A500034602B68002BE2D04FF080520E4B1A607E
:103A6000BFF34F8FBFF36F8F0124D9E71A68084B5C
:103A7000D268D26852681A60E0E700BF980500205B
:103A80008C0500201C060020A0050020F804002062
:103A9000D00500209405002004ED00E0D8050020AA
:103AA00000050020F404002008B598B10E4B1968F9
:103AB00041B14FF0500383F31188BFF36F8FBFF311
:103AC0004F8FFEE71A6801321A60FFF743FCFFF7D9
:103AD00061FF38B94FF08052044B1A60BFF34F8F2B
:103AE000BFF36F8F08BD00BF9805002004ED00E014
:103AF000194B1B68E3B91949194A10B40B601368D4
:103B0000B3FA83F3DBB2C3F11F03164803EB83025E
:103B100092008158841879B161680832496802447A
:103B20009142616011D0CA680F4B10BC1A60704797
:103B300001220A4B1A6070474FF0500383F311883B
:103B4000BFF36F8FBFF34F8FFEE7142202FB030317
:103B500049685960E7E700BF980500201C0600206F
:103B6000A005002000050020F404002040B94FF01B
:103B7000500383F31188BFF36F8FBFF34F8FFEE7BE
:103B800070B51B4D0C4629681831FEF77DFF194BA7
:103B90001E6828680430FEF791FF40B901222B68A7
:103BA0001549D86A0B68824023EA02030B60631C44
:103BB0000FD02B68A4195C6012D2104B18682968CA
:103BC0000431FEF761FF0E4B1A68944238BF1C6047
:103BD00070BD29680B480431BDE87040FEF746BF50
:103BE000094B18682968BDE870400431FEF74CBFE6
:103BF000F404002018060020A0050020F80400208E
:103C0000D0050020F0050020FC040020F8B5C368B2
:103C1000DC6854B304F118052846FEF74FFF184B33
:103C20001B68EBB9261D3046FEF748FF0123154DF2
:103C3000E26A2F681448934002EB82023B4331460C
:103C400000EB82002B60FEF711FF104BE26A1B684D
:103C5000DB6A9A4212D901230D4A18461360F8BD57
:103C600029460C48FEF702FFEFE74FF0500383F3BD
:103C70001188BFF36F8FBFF34F8FFEE70020F8BDB1
:103C800098050020A005002000050020F404002075
:103C90001C060020D8050020034A044B12681B684C
:103CA000C0E90023704700BFD4050020180600209B
:103CB000F8B540B3F1B10D46044600F0CBF9DFF89A
:103CC00078C02B686768DCF80060591CA6EB070217
:103CD00022D018482168D0F800E0714501D0B742E1
:103CE00025D993421AD8002301262B6000F0D4F97D
:103CF0003046F8BD4FF0500383F31188BFF36F8F48
:103D0000BFF34F8FFEE74FF0500383F31188BFF3EB
:103D10006F8FBFF34F8FFEE70026E7E70068DCF800
:103D200000109B1A2B600026C4E90001DEE7012683
:103D3000DCE700BFD4050020180600200122014B5B
:103D40001A6070471C060020054B1B6833B1054BF9
:103D50001B68002B0CBF0220002070470120704719
:103D6000EC050020980500202DE9F0410746C8B178
:103D7000254DC26A2968C96A8A4215D2816900291B
:103D800004DB2968C96AC1F1070181611F4E02EB9A
:103D90008202796906EB820291420ED001202A68E4
:103DA000D26AFA62BDE8F0812A68406CD36A984210
:103DB0002CBF00200120BDE8F08107F10408404637
:103DC000FEF77CFE68B9F96A01EB81039B00F358AA
:103DD0003BB901230E4A8B40116821EA03011160AF
:103DE00000E00B4A01242B681568D86A4146F86246
:103DF00004FA00F300EB800006EB80002B43136015
:103E0000FEF734FE2046CDE7F40400200005002034
:103E1000A005002068B1F8B5294B1B6883420AD081
:103E20004FF0500383F31188BFF36F8FBFF34F8FB1
:103E3000FEE7002070479B6C43B94FF0500383F3BB
:103E40001188BFF36F8FBFF34F8FFEE7C16A426CDB
:103E5000013B9142836400D00BB10020F8BD071DE7
:103E600004463846FEF72AFEB8B11648164B01251F
:103E70004FF0140C626CD3F800E005FA02F63946F4
:103E8000C2F1070746EA0E060CFB0200E262A761D8
:103E90001E60FEF7EBFD2846F8BD1423E56A0948CD
:103EA00003FB05F3C3580BB1074BE0E70122064BB8
:103EB00002FA05F51A6822EA05021A60D7E700BF80
:103EC000F404002000050020A0050020A8B1F8B5EA
:103ED000846C44B94FF0500383F31188BFF36F8FA4
:103EE000BFF34F8FFEE7436CC26A8B4238BF0B466D
:103EF0009A4201D0012C01D0F8BD70471F490968D2
:103F0000814222D0142581691D4E002905FB0262E1
:103F1000C362A4BFC3F10703836143699342EBD13A
:103F2000071D04463846FEF7C9FDB8B1E06A154BD7
:103F3000012214241D6882402A43394604FB006094
:103F40001A60BDE8F840FEF791BD4FF0500383F3CF
:103F50001188BFF36F8FBFF34F8FFEE70122E06A36
:103F600005FB00F5735902FA00F10BB1054BDFE7D1
:103F7000044B1A6822EA01021A60D9E7F40400200F
:103F800000050020A0050020044B1A681AB119682A
:103F90008A6C01328A641868704700BFF4040020FC
:103FA00000220E4B82B01B680192013308D04FF003
:103FB000500383F31188BFF36F8FBFF34F8FFEE77A
:103FC0004FF0500383F31188BFF36F8FBFF34F8F10
:103FD000019B002BFCD002B0704700BF18010020ED
:103FE00006480068006880F3088862B661B6BFF3CF
:103FF0004F8FBFF36F8F00DF00BF000008ED00E0C0
:1040000010B44FF08074064B21F0010140F8202CD1
:1040100040E9021440F80C3C10BC4038704700BF27
:10402000A13F0008000000000000000000000000A8
:10403000074B19680868B0E8F00F80F30988BFF3F0
:104040006F8F4FF0000080F311884EF00D0E704717
:10405000F40400204FF0500383F31188BFF36F8FF7
:10406000BFF34F8F0A4A13680133012B136000D04E
:104070007047084B1B6813F0FF0FF9D04FF0500347
:1040800083F31188BFF36F8FBFF34F8FFEE700BF3D
:104090001801002004ED00E0084A136843B94FF00E
:1040A000500383F31188BFF36F8FBFF34F8FFEE789
:1040B000013B13600BB983F311887047180100208E
:1040C000EFF30980BFF36F8F0D4B1A6820E9F00FF3
:1040D00010602DE908404FF0500080F31188FFF781
:1040E00007FD4FF0000080F31188BDE80840196813
:1040F0000868B0E8F00F80F30988BFF36F8F70474E
:10410000F404002008B54FF0500383F31188BFF387
:104110006F8FBFF34F8FFFF791FB18B14FF08052B5
:10412000024B1A60002383F3118808BD04ED00E000
:104130000023072110B4084A084C09481360236083
:104140000368084C0848A4FB03439B09013B036038
:1041500010BC1160704700BF10E000E018E000E004
:10416000A0020020D34D621014E000E030B5FF251E
:104170000724274B83B01A782649D2B201921D70CA
:104180001B782548DBB28DF803309DF803309DF88D
:10419000032003F050030B701106046010D50623B2
:1041A00000E00B469DF80320591E5200D2B28DF854
:1041B00003209DF803201206F3D4032B036008D0DC
:1041C0004FF0500383F31188BFF36F8FBFF34F8F0E
:1041D000FEE7002401990E4D1B02104AC9B203F4F8
:1041E000E06303602970136843F47003136013687D
:1041F00043F070431360FFF79BFF094B1C60FFF710
:10420000EFFEFFF775FCFFF7CBFE204603B030BD95
:1042100000E400E0200600202406002020ED00E05D
:1042200018010020EFF305830F2B0ED91049114A16
:104230005B5C12789A4208D94FF0500383F31188DF
:10424000BFF36F8FBFF34F8FFEE70B4B0B4A1B681B
:10425000126803F4E063934208D94FF0500383F3EC
:104260001188BFF36F8FBFF34F8FFEE7704700BF1A
:10427000F0E300E0200600200CED00E02406002022
:1042800030B4114B1A68824201D21346FAE75C68D7
:104290001919884203D1416818462144596044687D
:1042A00001198A4209D1094909688A4205D0D2E92F
:1042B00000512144C0E9005100E00260984218BF5B
:1042C000186030BC704700BF38120020280600205C
:1042D0002DE9F041414F0446FFF7A8FA3A68002A59
:1042E0005AD03F4B1E68344250D1002C4ED004F1BE
:1042F000080358071CBF23F007030833002B45D0E1
:10430000DFF8F080D8F800509D423FD3354804686C
:1043100006E0D4F800C0BCF1000F04D0204664468B
:1043200061689942F5D3944230D0CA1A2768102A9E
:10433000076010D9E018410708D04FF0500383F30D
:104340001188BFF36F8FBFF34F8FFEE7426063604A
:10435000FFF796FF61680023234A6D1A1068314306
:104360008542C4E9003104F1080438BF1560C8F87B
:104370000050FFF70FFB63070BD04FF0500383F3A0
:104380001188BFF36F8FBFF34F8FFEE7FFF702FB7C
:1043900000242046BDE8F081144B00205D071CBFBF
:1043A000073323F0070319464FF00045104ADFF8A2
:1043B00034C022F00702D31ACCF80400CCF8001065
:1043C0003A60C2E90000084FC1E9002309480449E6
:1043D0002E463B6003600D6085E700BF2806002085
:1043E0002C12002038120020341200202C0600204D
:1043F0002412002030120020D0B1194A50F8043C99
:104400001268134208D14FF0500383F31188BFF3B1
:104410006F8FBFF34F8FFEE750F8081C49B14FF084
:10442000500383F31188BFF36F8FBFF34F8FFEE705
:10443000704710B5044623EA020340F8043CFFF736
:10444000F5F9084A54F8043C1168A4F108000B443B
:104450001360FFF715FFBDE81040FFF79BBA00BFE0
:104460002C1200203012002000B5074B83B002A8A8
:10447000032140F8043D00F0D5FE0122034B1A70E1
:1044800003B05DF804FB00BF6572720040120020AB
:1044900070B5204A204B127882B093E80300009058
:1044A000ADF804100AB1012A2FD102211B48FBF7F5
:1044B000C3FF1B4C1B4E2368FBB1184D04E00120C9
:1044C000FEF7BCFA2368C3B10122013B114628461E
:1044D0002360FBF7B1FF0120FEF7B0FA00220121B3
:1044E0002846FBF7A9FF3378022BE8D000220121F0
:1044F0000A48FBF7A1FF02B070BD0521684600F035
:1045000091FE0123337002B070BD0421064800F013
:1045100089FECEE744010020C4590008000801408C
:1045200044120020401200209002002070B51E4A64
:104530001E4B127882B093E803000090ADF804108F
:104540000AB1012A2AD108211948FBF775FF194C35
:10455000194E2368D3B1164D04E00120FEF76EFA20
:1045600023689BB1013B0122042128462360FBF70D
:1045700063FF0120FEF762FA002204212846FBF7C0
:104580005BFF3378032BE8D002B070BD052168468D
:1045900000F048FE0123337002B070BD04210748CB
:1045A00000F040FED3E700BF45010020CC590008D1
:1045B0000008014048120020401200209002002014
:1045C00008B5032200210120FEF7D6FA064B074D5D
:1045D000074C18602B78042B00D9FEE704EBC303CB
:1045E0005B689847F6E700BF741400204012002073
:1045F0001C01002008B500F0AFFD0120FEF71EFAF7
:10460000FBE700BF10B505223149044601F08EF8E2
:1046100000284AD005222F49204601F087F80028BB
:1046200041D005222C49204601F080F8002839D0DD
:1046300006222A49204601F079F8002837D00622C0
:104640002749204601F072F8A8B3062225492046E2
:1046500001F06CF888B306222349204601F066F881
:1046600038B305222149204601F060F838B305220D
:104670001F49204601F05AF818B306221D4920466A
:1046800001F054F8F8B106221B49204601F04EF81B
:10469000D8B120460522194901F048F800280CBF7E
:1046A0000920FF2010BD012010BD022010BD0420F4
:1046B00010BD0B2010BD052010BD0A2010BD032029
:1046C00010BD072010BD062010BD082010BD00BF82
:1046D000245A0008D4590008DC590008E45900089D
:1046E000F0590008EA590008F6590008FC5900087A
:1046F0000C5A0008045A0008145A00081C5A0008F2
:1047000070B546F275530024404A84B0106842F2F6
:104710001071CDE90034CDE90244FEF759FC0128BF
:1047200001D004B070BD6D46394B3A4E18685968D7
:104730009A68DB6834600FC5374B02201C60FEF7B7
:104740007DF96846FFF75EFF0B2857D8DFE800F0D9
:104750004E262E160E061E363E460E0604212F4805
:1047600000F060FD00222E4B1A70DAE704212D487C
:1047700000F058FD00222A4B1A70D2E704212A4883
:1047800000F050FD0022264B1A70CAE70521274889
:1047900000F048FD0022224B1A70C2E7072124488E
:1047A00000F040FD01221E4B1A70BAE70621214895
:1047B00000F038FD00221A4B1A70B2E705211E489E
:1047C00000F030FD0022164B1A70AAE705211B48A5
:1047D00000F028FD0022124B1A70A2E705211848AC
:1047E00000F020FD00220E4B1A709AE704211548B4
:1047F00000F018FD00220A4B1A7092E704211248BB
:1048000000F010FD0022064B1A708AE77414002095
:104810007814002044120020481200205E0100207D
:104820004012002058010020640100207401002083
:10483000480100206C0100207C0100208401002040
:104840008C010020500100209401002070B546F238
:1048500075530024A84A96B0106842F21071CDE951
:104860000034CDE90244FEF7B3FB012801D016B0B5
:1048700070BD6B46A14DA24E28686968AA68346075
:1048800007C3A989AA7B9F4D19809A7002202C60CA
:10489000FEF7D4F86846FFF7B5FE0B2800F2348225
:1048A000DFE810F01A0022002A0032003A00480027
:1048B0004E00FC004A01F90121020C00042192483B
:1048C00000F0B0FC00200322904B91491C68914BF2
:1048D0002C6008701A70CAE707218F4800F0A2FC0C
:1048E00000228C4B1A70C2E707218C4800F09AFC1A
:1048F0000122884B1A70BAE70621894800F092FC21
:104900000122844B1A70B2E70421864800F08AFC29
:104910000122804B1A70AAE70421834800F082FC30
:1049200001200222814B82491C687A4B3460087056
:104930001A709CE70421744800F074FC0120C2E75F
:1049400000267C4B04AD93E8030085E803000120BA
:104950008DF81860FEF772F89DF807300DAC292B22
:104960000D96666000F0F281A3F13002092A00F290
:10497000E1819DF808208DF83430292A00F0EC817F
:10498000A2F13003092B00F2D5819DF809308DF892
:104990003520292B00F0E681A3F13002092A00F22C
:1049A000C9819DF80A208DF83630292A00F0DC8173
:1049B000A2F13003092B00F2BD819DF80B308DF878
:1049C0003720292B00F0D481A3F13002092A00F20C
:1049D000B1819DF80C208DF83830292A00F0CC8167
:1049E000A2F13003092B00F2A5819DF80D308DF85E
:1049F0003920292B00F0BE81A3F13002092A00F2F0
:104A000099819DF80E208DF83A30292A00F08B818B
:104A1000A2F13003092B00F28D819DF80F308DF843
:104A20003B20292B08BF0F2300F07E81A3F1300229
:104A3000092A98BF8DF83C3000F27C81204600F0B6
:104A400032FE3A4E30600220FDF7F8FF3668212230
:104A50000021204600F084FE21220021284600F09B
:104A60007FFE304629460A2200F05EFE00210DF14D
:104A70000F030DF133000CAE13F8012F4D1C002A6B
:104A800000F03C81B342E9B200F8012FF4D1204696
:104A900000F0C8FB01221F4B1A70E8E60220FDF768
:104AA000CDFF224B0DAC1D6821220021204600F0D5
:104AB00057FE2122002104A800F052FE04A9284636
:104AC0000A2200F031FE00210DF10F030DF1330039
:104AD0000CAE13F8012F4D1C4AB19E42E9B200F80A
:104AE000012FD4D013F8012F4D1C002AF5D19E427E
:104AF00000F8012FEDD1CAE77414002078140020CB
:104B000044120020481200205A0200209C0200207B
:104B100045010020401200204C02002044020020E9
:104B20006802002060020020540200209802002049
:104B3000440100207C5900080026924B04AD93E804
:104B4000030085E8030001208DF81860FDF776FF6B
:104B50009DF807300DAC292B0D96666000F0F880AB
:104B6000A3F13002092A00F2EB809DF808208DF8AD
:104B70003430292A00F0EE80A2F13003092B00F234
:104B8000DF809DF809308DF83520292B00F0E88072
:104B9000A3F13002092A00F2D3809DF80A208DF893
:104BA0003630292A00F0DA80A2F13003092B00F216
:104BB000C7809DF80B308DF83720292B00F0D68068
:104BC000A3F13002092A00F2BB809DF80C208DF879
:104BD0003830292A00F0D480A2F13003092B00F2EA
:104BE000AF809DF80D308DF83920292B00F0C6805C
:104BF000A3F13002092A00F2A3809DF80E208DF85F
:104C00003A30292A00F08880A2F13003092B00F203
:104C100097809DF80F308DF83B20292B08BF0F237C
:104C20007BD0A3F13002092A98BF8DF83C3000F206
:104C30008780204600F037FD534E30600220FDF79C
:104C4000FDFE366821220021204600F089FD212248
:104C50000021284600F084FD304629460A2200F053
:104C600063FD00210DF10F030DF133000CAE13F8BD
:104C7000012F4D1C52B19E42E9B200F8012F3FF4C2
:104C800006AF13F8012F4D1C002AF4D19E4200F804
:104C9000012FECD1FBE60220FDF7D0FE3A4B0DAC24
:104CA0001D6821220021204600F05AFD212200210A
:104CB00004A800F055FD04A928460A2200F034FD9E
:104CC00000210DF10F030DF133000CAE13F8012F8D
:104CD0004D1C72B1B342E9B200F8012FF6D1204663
:104CE00000F0A0FAC3E50421284800F09BFA002058
:104CF00017E6B34200F8012FE8D1F0E7B34200F81D
:104D0000012F7FF4B9AEC2E60421214800F08AFAEF
:104D10000122204B1A70AAE50E23002216A90B448B
:104D200003F82B2C85E70E23002216A90B4403F869
:104D30002B2C83E60821284600F074FA164E82E6F2
:104D40000821284600F06EFA0F4E77E70723EBE7BD
:104D50000723E2E70823E0E70823E5E70A23DCE787
:104D60000923DAE70923DFE70A23DDE70B23D4E78A
:104D70000B23D9E70D23D7E70C23D5E70D23CCE789
:104D80000C23CAE77C5900089C0200205402002032
:104D900090020020401200209802002080B53B4F76
:104DA0003B4C3C4D3C4EDFF8109184B007F10808B5
:104DB0000120FDF743FE2378023B012BF8D842F295
:104DC00010712868FEF704F90128F1D12378023B1D
:104DD000012B06D9002328681A461946FDF710FF53
:104DE000E6E73068716801AB03C3327A02201A70BB
:104DF000FDF724FE01A8FFF705FC07283AD8DFE8F5
:104E000000F0322D281E19140C040521404600F034
:104E100009FA0220FDF712FECAE70521384600F024
:104E200001FA0220FDF70AFEC2E705211B4800F047
:104E3000F9F9BDE705211A4800F0F4F9B8E723783D
:104E4000032B1CD0022BB3D10521164800F0EAF940
:104E5000AEE70521144800F0E5F9A9E7052113485C
:104E600000F0E0F9A4E70521114800F0DBF9002388
:104E700023709DE70421484600F0D4F998E7052106
:104E80000C4800F0CFF92378DCE700BFC801002010
:104E9000401200207414002078140020B201002079
:104EA000AC010020B8010020C00100209C010020BE
:104EB000A40100200C0200209002002070B54FF4E5
:104EC00080330024012502264FF4801294B00AA8F2
:104ED0000B93129313920C94059401940D94CDE9C5
:104EE0000F44CDE90644CDE90844CDE902440494D9
:104EF0000A950E951196FBF7DFFE0F224FF48063A3
:104F0000294605A805920893CDE906640994FCF7A3
:104F1000CBF810224FF4800301A801920493FCF710
:104F2000BFF914B070BD00BF002580B592B0FBF78B
:104F30000FF9FFF7C3FFCDE90D55CDE90F55274B0D
:104F40002A4699690F2641F02001996198690F213D
:104F500000F02000019001989C69214844F004046D
:104F60009C619B691F4C03F004030293029BFBF7B7
:104F700063FA012202230DA91948CDE90D621093AD
:104F80000F95FBF75FF90FCC264603AF0FC756F816
:104F9000043B294603A83B60FDF736FD124B0DAFDD
:104FA00018340DF1200C18600FCEACE80F000FCCB8
:104FB0000FC732682368294608A8CCF800203B6058
:104FC000FDF722FD094B294618600DA8FDF71CFDD1
:104FD000074B1860FDF712FDFEE700BF001002400E
:104FE0000008014088590008881400208C14002013
:104FF000901400200268034B9A4200D07047FBF7E0
:10500000B9B800BF00080040704700BF114B10B591
:10501000986982B040F0010098619C69002204F018
:1050200001040094009CDC690F2144F08054DC6191
:10503000DB696FF0010003F080530193019BFBF7E4
:10504000BDF8054A536823F0E06343F08063536082
:1050500002B010BD001002400000014030B5014612
:1050600089B000221E20FBF7A9F81E20FBF7DCF810
:10507000154B01A9DA6903A842F00402DA61DB6981
:10508000124D03F004030293029BFCF7E9F8FCF7CE
:10509000D7F8002240F2E7314300A5FB03030C4C94
:1050A0000C4D9B0C013B2046C4E90053C4E903129C
:1050B000A260FCF779F910B1012009B030BD20469B
:1050C000FCF7C0F909B030BD0010024083DE1B437D
:1050D0009414002000080040704700BFFEE700BFA6
:1050E000FEE700BFFEE700BFFEE700BF704700BF5E
:1050F0000148FBF73BBA00BF681F00200148FCF7DE
:10510000B9B900BF9414002030B44FF41F054FF01C
:1051100000640E4B0E4A19680E4841F001011960F7
:1051200059680A405A601A6822F0847222F4803268
:105130001A601A6822F480221A605A6822F4FE0269
:105140005A609D60846030BC704700BF0010024010
:105150000000FFF800ED00E008B5002210491148FA
:10516000FDF72CF8C0B910490E48FDF73DF880B99D
:105170000E490C48FCF7DAFF40B90A48FDF73CF845
:1051800000B908BDBDE80840FFF73EBFFFF73CFF90
:10519000F3E7FFF739FFEBE7FFF736FFE3E700BF81
:1051A000B4020020D414002008000020A402002033
:1051B000002070470020704770B504460B4D014633
:1051C0002846FCF7C3FF2846FCF7E0FF084B0949D7
:1051D0001868FDF7A7FE26686568A168E268064BB7
:1051E00000201E605D609960DA6070BDD4140020FC
:1051F000741400204C1200207814002010B5064CC6
:10520000002220460549FCF799FF20460449FCF797
:105210009DFF002010BD00BFD4140020801B002083
:105220009817002010B5094CD4F8B832D3F81432CE
:105230000BB1012010BD0A4601462046FCF77EFF57
:105240002046BDE81040FCF787BF00BFD414002003
:1052500002680E4B9A4200D0704703F5DA33D869E2
:1052600000B540F40000D861DB6983B003F40003AB
:105270000193002205211420019BFAF79FFF1420BF
:1052800003B05DF804EBFAF7CFBF00BF005C00404D
:1052900000F50C71D0F86802FCF7C6BF00EB4113B3
:1052A000D3F83C21D0F86802FCF7EEBF00EB4113C5
:1052B000DA6BD0F86802FDF727B800BFD0F86802B3
:1052C000FDF7C2B8836810B5022B044601D0FFF782
:1052D0009BFED4F868020121FDF79EF8D4F868021D
:1052E000BDE81040FDF770B810B50446D0F868026C
:1052F000FDF796F8A36923B1024A136943F0060348
:10530000136110BD00ED00E0D0F86802FDF792B81F
:1053100038B504460022082502211C4B1C48C4F85D
:10532000C03218601846C3F86842C3E90151C3E9A6
:1053300006221A62FBF784F808B1FFF765FE002227
:1053400018231146D4F8C002FBF79AFC5823002218
:105350008021D4F8C002FBF793FCC02300228121F6
:10536000D4F8C002FBF78CFC4FF4887300220121B3
:10537000D4F8C002FBF784FCD4F8C0024FF4807369
:1053800000228221FBF77CFC002038BD681F002032
:10539000005C004008B5D0F8C002FBF7CFF8032846
:1053A00096BF024B0220185C08BD00BF685A000877
:1053B00010B51C46D0F8C00213462246FBF758FB36
:1053C000032896BF014B0220185C10BD685A0008E4
:1053D00008B5D0F8C002FBF77DFB032896BF024B4F
:1053E0000220185C08BD00BF685A000808B5D0F854
:1053F000C002FBF7D1FB032896BF024B0220185CCA
:1054000008BD00BF685A000808B5D0F8C002FBF715
:10541000FFFB032896BF024B0220185C08BD00BFAB
:10542000685A00080A06D0F8C03204D403EB4113CE
:1054300093F82A01704701F07F0103EB411393F8C1
:105440002A00704708B5D0F8C002FBF7FDFA032820
:1054500096BF024B0220185C08BD00BF685A0008C6
:1054600008B5D0F8C002FBF781FB032896BF024BBA
:105470000220185C08BD00BF685A000808B5D0F8C3
:10548000C002FBF753FB032896BF024B0220185CB7
:1054900008BD00BF685A0008D0F8C002FBF75EBB29
:1054A0000048704750120020704700BF704700BF8F
:1054B000122301480B807047D002002004230148CA
:1054C0000B807047E402002010B5044C0A460448E3
:1054D0002146FDF727FA204610BD00BFD421002049
:1054E000885A000810B5044C0A4604482146FDF7C6
:1054F00019FA204610BD00BFD42100209C5A000894
:1055000010B5044C0A4604482146FDF70BFA204624
:1055100010BD00BFD42100206C5A000810B5044C07
:105520000A4604482146FDF7FDF9204610BD00BF9C
:10553000D4210020785A00081A20444A444B1268AB
:105540001B680880D21801D14248704710B400246B
:10555000130FD8B2092B40493E4B94BF303037303F
:1055600009689870C2F303600928DC70C4B294BF64
:10557000303437341C710024C2F3035009285C71A5
:10558000C4B294BF303437349C710024C2F303405A
:105590000928DC71C4B294BF303437341C72002443
:1055A000C2F3033009285C72C4B294BF303437347C
:1055B0009C720024C2F303200928DC72C4B294BF99
:1055C000303437341C730024C2F30310092802F06E
:1055D0000F025C73C4B298BF3034D0B288BF373486
:1055E000092A94BF30303730187400200A0F092A76
:1055F0005874D0B294BF3030373098740020C1F363
:105600000362092AD874D0B294BF3030373018758D
:105610000020C1F30352092A5875C1F30341D0B2E7
:1056200098BF3030CAB288BF3730092994BF3032B2
:1056300037329C739875002400201A760022D875A2
:10564000DC735A76034810BC704700BFE8F7FF1FB1
:10565000F0F7FF1FE8020020ECF7FF1F002103E036
:105660000B4B5B58435004310A480B4B42189A428B
:10567000F6D30A4A02E0002342F8043B084B9A4260
:10568000F9D3FFF741FD00F013F8FFF74DFC704729
:10569000EC5B000800000020D4040020D4040020AB
:1056A000D4230020FEE70A22002100F0DDB800002C
:1056B00070B500250C4E0D4CA41BA410A54209D1B9
:1056C00000F048F900250A4E0A4CA41BA410A5427C
:1056D00005D170BD56F8253098470135EEE756F8EC
:1056E000253098470135F2E7E45B0008E45B0008E9
:1056F000E45B0008E85B0008931E222B10B50C4603
:1057000004D900231C460B70204610BD0A2A09D17B
:10571000002807DA2D230B7001214042214400F0BC
:10572000B9F8F1E70021F9E7FFF7E6BF30B500244B
:10573000A24201D1002007E0035D01340D1915F8E4
:10574000015CAB42F4D0581B30BD10B5431E0A4477
:10575000914200D110BD11F8014B03F8014FF7E75A
:1057600003460244934200D1704703F8011BF9E756
:105770002DE9F0478046894692461E460F463D4633
:10578000089815F8014B00F0C3F82044437813F053
:10579000080332D12D2C32D101227C78BD1C002E81
:1057A0005DD0102E09D1302C07D12B7803F0DF0308
:1057B000582B4FD110266C780235002A14BF4FF0B9
:1057C00000416FF000410027B1FBF6FC384606FBB4
:1057D0001C1EA4F13003092B17D81C46A64223DD5A
:1057E0007B1C07D084451CD301D1A64519DB0127BA
:1057F00000FB064015F8014BEBE72F46BFE72B2CCB
:1058000004BFBD1C7C781A46C9E7A4F14103192BDB
:1058100001D8373CE2E7A4F16103192B04D8573CC7
:10582000DCE74FF0FF37E5E77B1C08D12223084671
:10583000C8F80030BAF1000F07D1BDE8F08702B117
:105840004042BAF1000FF8D00FB105F1FF39CAF8A4
:105850000090F2E73024002EAFD10826ADE7302CBF
:10586000A3D00A26A9E70000084B37B51C68084DED
:10587000236A002B08BF2B46009313460A460146B5
:105880002046FFF775FF03B030BD00BF04030020C2
:1058900068030020F0B58BB005460C466E461B4BE6
:1058A00003F1200C374618685968083303C763456D
:1058B0003E46F7D118681B7938603B71931E222B46
:1058C0004FF0000304D923701C4620460BB0F0BDF6
:1058D000661EB5FBF2F002FB10550AAF3D4415F809
:1058E000285C591C06F8015F054668B922466054D9
:1058F0002344191B101B8142E7DD1178187802F848
:10590000010B03F80119F4E70B46E2E7B45A00086B
:10591000D0F8EC00704782B001B901A942B14BB197
:1059200013780B601278101C18BF012002B070476A
:105930001046FBE76FF00100F8E749B1FF2A8BBF83
:105940008A230A700360012088BF4FF0FF30704740
:1059500008467047F8B500BFF8BC08BC9E467047C3
:0C596000F8B500BFF8BC08BC9E467047BC
:10596C0002030405060708090A0B0C0D0E0F101094
:10597C00455252535445500000000000445A000850
:10598C00F545000800000000000000008000000049
:10599C00385A0008C1450008000000000000000053
:1059AC00800000002C5A00089D4D000800000000EB
:1059BC0000000000800000004D56584F4B000000C6
:1059CC004D56594F4B0000002A434F4E4E3F00009E
:1059DC002A444953430000002A4D4F56582B2A4D58
:1059EC004F56582D2A4D4F56592B2A4D4F56592D3F
:1059FC002A535441543F00002A535354505800002A
:105A0C002A535450583F00002A5353545059000005
:105A1C002A535450593F00002A49444E3F0000007D
:105A2C006F7576655461736B000000006D61717564
:105A3C00696E615461736B0064656661756C745456
:105A4C0061736B0000000000000000000102030401
:105A5C00060708090000000001020304000201020D
:105A6C0043444320436F6E66696700004344432000
:105A7C00496E7465726661636500000053544D692C
:105A8C0063726F656C656374726F6E69637300002B
:105A9C0053544D3332205669727475616C20436FC8
:105AAC006D506F727400000030313233343536373C
:105ABC0038396162636465666768696A6B6C6D6EC0
:105ACC006F707172737475767778797A00430050C1
